S00A00006C63642E733139B7
S11324008E25FFBD25A4CE25B918CE26002008A60A
S11324100018A7000818088C25B925F3CC0000275C
S11324200BCE26006F000883000126F88D09BD2518
S1132430A720FB2406241CDE003C9F008D0CCC2529
S1132440ABBD25384F5F38DF0039DE003C9F00BD4F
S1132450252ABD24E48D428D0438DF0039DE003C9A
S11324609F00CC0001BD256638DF0039DE003C9FAB
S113247000CC0002BD256638DF0039DE003C9F0039
S1132480CC0004BD256638DF0039DE003C9F00CC5B
S11324900005BD256638DF0039DE003C9F00CC0016
S11324A006BD256638DF0039DE003C9F00CC0007FE
S11324B0BD256638DF0039DE003C9F00CC0008BD36
S11324C0256638DF0039DE003C9F00CC000CBD25BA
S11324D06638DF0039DE003C9F00CC000EBD256667
S11324E038DF0039DE003C9F00CC000F8D7838DFE8
S11324F00039DE003C9F00CC00108D6A38DF0039C3
S1132500DE003C9F00CC00148D5C38DF0039DE0017
S11325103C9F00CC00188D4E38DF0039DE003C9F14
S113252000CC001C8D4038DF0039DE003C9F00CC1D
S1132530003C8D3238DF0039DE003C3C9F00DE0079
S1132540ED01188F18E6002718DE00EE014FE600B3
S11325500818DE00CDEF018D25DE00EE016D0026AA
S1132560E83838DF0039DE003C349F00DE00E70144
S11325708D24DE00E601F7B5F03138DF0039DE00E6
S11325803C349F00DE00E7018D0CDE00E601F7B568
S1132590F13138DF0039DE003C9F00F6B5F02BFB4B
S10E25A038DF00394F06390E3E20FCE6
S11125AB48656C6C6F2C20776F726C64210095
S9032400D8
